{
  "contractName": "PostingImage",
  "abi": [
    {
      "anonymous": false,
      "inputs": [
        {
          "indexed": true,
          "internalType": "uint256",
          "name": "id",
          "type": "uint256"
        },
        {
          "indexed": true,
          "internalType": "address",
          "name": "commenter",
          "type": "address"
        },
        {
          "indexed": false,
          "internalType": "string",
          "name": "text",
          "type": "string"
        },
        {
          "indexed": false,
          "internalType": "uint256",
          "name": "timestamp",
          "type": "uint256"
        }
      ],
      "name": "CommentAdded",
      "type": "event"
    },
    {
      "anonymous": false,
      "inputs": [
        {
          "indexed": false,
          "internalType": "uint256",
          "name": "id",
          "type": "uint256"
        },
        {
          "indexed": true,
          "internalType": "address",
          "name": "author",
          "type": "address"
        },
        {
          "indexed": false,
          "internalType": "string",
          "name": "imageUrl",
          "type": "string"
        },
        {
          "indexed": false,
          "internalType": "string",
          "name": "description",
          "type": "string"
        },
        {
          "indexed": false,
          "internalType": "uint256",
          "name": "timestamp",
          "type": "uint256"
        }
      ],
      "name": "PostCreated",
      "type": "event"
    },
    {
      "anonymous": false,
      "inputs": [
        {
          "indexed": false,
          "internalType": "uint256",
          "name": "id",
          "type": "uint256"
        },
        {
          "indexed": true,
          "internalType": "address",
          "name": "liker",
          "type": "address"
        },
        {
          "indexed": false,
          "internalType": "uint256",
          "name": "newLikes",
          "type": "uint256"
        }
      ],
      "name": "PostLiked",
      "type": "event"
    },
    {
      "anonymous": false,
      "inputs": [
        {
          "indexed": true,
          "internalType": "address",
          "name": "user",
          "type": "address"
        },
        {
          "indexed": false,
          "internalType": "string",
          "name": "username",
          "type": "string"
        }
      ],
      "name": "UsernameUpdated",
      "type": "event"
    },
    {
      "inputs": [
        {
          "internalType": "uint256",
          "name": "",
          "type": "uint256"
        }
      ],
      "name": "posts",
      "outputs": [
        {
          "internalType": "uint256",
          "name": "id",
          "type": "uint256"
        },
        {
          "internalType": "address",
          "name": "author",
          "type": "address"
        },
        {
          "internalType": "string",
          "name": "imageUrl",
          "type": "string"
        },
        {
          "internalType": "string",
          "name": "description",
          "type": "string"
        },
        {
          "internalType": "uint256",
          "name": "likes",
          "type": "uint256"
        },
        {
          "internalType": "uint256",
          "name": "timestamp",
          "type": "uint256"
        }
      ],
      "stateMutability": "view",
      "type": "function"
    },
    {
      "inputs": [],
      "name": "totalPosts",
      "outputs": [
        {
          "internalType": "uint256",
          "name": "",
          "type": "uint256"
        }
      ],
      "stateMutability": "view",
      "type": "function"
    },
    {
      "inputs": [
        {
          "internalType": "address",
          "name": "",
          "type": "address"
        }
      ],
      "name": "usernames",
      "outputs": [
        {
          "internalType": "string",
          "name": "",
          "type": "string"
        }
      ],
      "stateMutability": "view",
      "type": "function"
    },
    {
      "inputs": [
        {
          "internalType": "string",
          "name": "name",
          "type": "string"
        }
      ],
      "name": "setUsername",
      "outputs": [],
      "stateMutability": "nonpayable",
      "type": "function"
    },
    {
      "inputs": [
        {
          "internalType": "string",
          "name": "img",
          "type": "string"
        },
        {
          "internalType": "string",
          "name": "desc",
          "type": "string"
        }
      ],
      "name": "createPost",
      "outputs": [],
      "stateMutability": "nonpayable",
      "type": "function"
    },
    {
      "inputs": [
        {
          "internalType": "uint256",
          "name": "postId",
          "type": "uint256"
        }
      ],
      "name": "likePost",
      "outputs": [],
      "stateMutability": "nonpayable",
      "type": "function"
    },
    {
      "inputs": [
        {
          "internalType": "uint256",
          "name": "postId",
          "type": "uint256"
        },
        {
          "internalType": "string",
          "name": "text",
          "type": "string"
        }
      ],
      "name": "addComment",
      "outputs": [],
      "stateMutability": "nonpayable",
      "type": "function"
    },
    {
      "inputs": [
        {
          "internalType": "uint256",
          "name": "id",
          "type": "uint256"
        }
      ],
      "name": "getPost",
      "outputs": [
        {
          "internalType": "uint256",
          "name": "",
          "type": "uint256"
        },
        {
          "internalType": "address",
          "name": "",
          "type": "address"
        },
        {
          "internalType": "string",
          "name": "",
          "type": "string"
        },
        {
          "internalType": "string",
          "name": "",
          "type": "string"
        },
        {
          "internalType": "uint256",
          "name": "",
          "type": "uint256"
        },
        {
          "internalType": "uint256",
          "name": "",
          "type": "uint256"
        },
        {
          "internalType": "uint256",
          "name": "",
          "type": "uint256"
        }
      ],
      "stateMutability": "view",
      "type": "function"
    }
  ],
  "bytecode": "0x60806040525f600155348015610013575f80fd5b5061129d806100215f395ff3fe608060405234801561000f575f80fd5b5060043610610086575f3560e01c80638e53fb41116100595780638e53fb411461012d578063aa7e56831461014b578063ed59313a14610167578063ee91877c1461018357610086565b80630b1e7f831461008a578063392338f5146100bf57806340731c24146100db578063725009d314610111575b5f80fd5b6100a4600480360381019061009f9190610960565b6101b3565b6040516100b696959493929190610a63565b60405180910390f35b6100d960048036038101906100d49190610bfc565b610316565b005b6100f560048036038101906100f09190610960565b610417565b6040516101089796959493929190610c72565b60405180910390f35b61012b60048036038101906101269190610960565b6105a3565b005b610135610677565b6040516101429190610ced565b60405180910390f35b61016560048036038101906101609190610d06565b61067d565b005b610181600480360381019061017c9190610d60565b6107e7565b005b61019d60048036038101906101989190610dd1565b610882565b6040516101aa9190610dfc565b60405180910390f35b6002602052805f5260405f205f91509050805f015490806001015f9054906101000a900473ffffffffffffffffffffffffffffffffffffffff16908060020180546101fd90610e49565b80601f016020809104026020016040519081016040528092919081815260200182805461022990610e49565b80156102745780601f1061024b57610100808354040283529160200191610274565b820191905f5260205f20905b81548152906001019060200180831161025757829003601f168201915b50505050509080600301805461028990610e49565b80601f01602080910402602001604051908101604052809291908181526020018280546102b590610e49565b80156103005780601f106102d757610100808354040283529160200191610300565b820191905f5260205f20905b8154815290600101906020018083116102e357829003601f168201915b5050505050908060040154908060050154905086565b5f60025f60015481526020019081526020015f209050600154815f018190555033816001015f6101000a81548173ffffffffffffffffffffffffffffffffffffffff021916908373ffffffffffffffffffffffffffffffffffffffff160217905550828160020190816103899190611016565b508181600301908161039b9190611016565b504281600501819055503373ffffffffffffffffffffffffffffffffffffffff167f1947cbf766c888fc9c5f4256cf388fe32d4901ff5bd47d3a4d5318af978cddbe6001548585426040516103f394939291906110e5565b60405180910390a260015f81548092919061040d90611163565b9190505550505050565b5f806060805f805f8060025f8a81526020019081526020015f209050805f0154816001015f9054906101000a900473ffffffffffffffffffffffffffffffffffffffff16826002018360030184600401548560050154866006018054905084805461048190610e49565b80601f01602080910402602001604051908101604052809291908181526020018280546104ad90610e49565b80156104f85780601f106104cf576101008083540402835291602001916104f8565b820191905f5260205f20905b8154815290600101906020018083116104db57829003601f168201915b5050505050945083805461050b90610e49565b80601f016020809104026020016040519081016040528092919081815260200182805461053790610e49565b80156105825780601f1061055957610100808354040283529160200191610582565b820191905f5260205f20905b81548152906001019060200180831161056557829003601f168201915b50505050509350975097509750975097509750975050919395979092949650565b60015481106105e7576040517f08c379a00000000000000000000000000000000000000000000000000000000081526004016105de906111f4565b60405180910390fd5b60025f8281526020019081526020015f206004015f81548092919061060b90611163565b91905055503373ffffffffffffffffffffffffffffffffffffffff167fdfb8e3561bacb6caea7f0960d425956921b9147a631b6e857325c39911ee7e3b8260025f8581526020019081526020015f206004015460405161066c929190611212565b60405180910390a250565b60015481565b60015482106106c1576040517f08c379a00000000000000000000000000000000000000000000000000000000081526004016106b8906111f4565b60405180910390fd5b60025f8381526020019081526020015f2060060160405180606001604052803373ffffffffffffffffffffffffffffffffffffffff16815260200183815260200142815250908060018154018082558091505060019003905f5260205f2090600302015f909190919091505f820151815f015f6101000a81548173ffffffffffffffffffffffffffffffffffffffff021916908373ffffffffffffffffffffffffffffffffffffffff16021790555060208201518160010190816107859190611016565b506040820151816002015550503373ffffffffffffffffffffffffffffffffffffffff16827fceaa40d9d02173d6fae1f576cc1baff7cec35a842086153314079c405401a98883426040516107db929190611239565b60405180910390a35050565b805f803373ffffffffffffffffffffffffffffffffffffffff1673ffffffffffffffffffffffffffffffffffffffff1681526020019081526020015f2090816108309190611016565b503373ffffffffffffffffffffffffffffffffffffffff167f1af4cc3acb57f067d1d582e3932be6692a4c9a31d8b3a8567dfc1c340a02d534826040516108779190610dfc565b60405180910390a250565b5f602052805f5260405f205f91509050805461089d90610e49565b80601f01602080910402602001604051908101604052809291908181526020018280546108c990610e49565b80156109145780601f106108eb57610100808354040283529160200191610914565b820191905f5260205f20905b8154815290600101906020018083116108f757829003601f168201915b505050505081565b5f604051905090565b5f80fd5b5f80fd5b5f819050919050565b61093f8161092d565b8114610949575f80fd5b50565b5f8135905061095a81610936565b92915050565b5f6020828403121561097557610974610925565b5b5f6109828482850161094c565b91505092915050565b6109948161092d565b82525050565b5f73ffffffffffffffffffffffffffffffffffffffff82169050919050565b5f6109c38261099a565b9050919050565b6109d3816109b9565b82525050565b5f81519050919050565b5f82825260208201905092915050565b5f5b83811015610a105780820151818401526020810190506109f5565b5f8484015250505050565b5f601f19601f8301169050919050565b5f610a35826109d9565b610a3f81856109e3565b9350610a4f8185602086016109f3565b610a5881610a1b565b840191505092915050565b5f60c082019050610a765f83018961098b565b610a8360208301886109ca565b8181036040830152610a958187610a2b565b90508181036060830152610aa98186610a2b565b9050610ab8608083018561098b565b610ac560a083018461098b565b979650505050505050565b5f80fd5b5f80fd5b7f4e487b71000000000000000000000000000000000000000000000000000000005f52604160045260245ffd5b610b0e82610a1b565b810181811067ffffffffffffffff82111715610b2d57610b2c610ad8565b5b80604052505050565b5f610b3f61091c565b9050610b4b8282610b05565b919050565b5f67ffffffffffffffff821115610b6a57610b69610ad8565b5b610b7382610a1b565b9050602081019050919050565b828183375f83830152505050565b5f610ba0610b9b84610b50565b610b36565b905082815260208101848484011115610bbc57610bbb610ad4565b5b610bc7848285610b80565b509392505050565b5f82601f830112610be357610be2610ad0565b5b8135610bf3848260208601610b8e565b91505092915050565b5f8060408385031215610c1257610c11610925565b5b5f83013567ffffffffffffffff811115610c2f57610c2e610929565b5b610c3b85828601610bcf565b925050602083013567ffffffffffffffff811115610c5c57610c5b610929565b5b610c6885828601610bcf565b9150509250929050565b5f60e082019050610c855f83018a61098b565b610c9260208301896109ca565b8181036040830152610ca48188610a2b565b90508181036060830152610cb88187610a2b565b9050610cc7608083018661098b565b610cd460a083018561098b565b610ce160c083018461098b565b98975050505050505050565b5f602082019050610d005f83018461098b565b92915050565b5f8060408385031215610d1c57610d1b610925565b5b5f610d298582860161094c565b925050602083013567ffffffffffffffff811115610d4a57610d49610929565b5b610d5685828601610bcf565b9150509250929050565b5f60208284031215610d7557610d74610925565b5b5f82013567ffffffffffffffff811115610d9257610d91610929565b5b610d9e84828501610bcf565b91505092915050565b610db0816109b9565b8114610dba575f80fd5b50565b5f81359050610dcb81610da7565b92915050565b5f60208284031215610de657610de5610925565b5b5f610df384828501610dbd565b91505092915050565b5f6020820190508181035f830152610e148184610a2b565b905092915050565b7f4e487b71000000000000000000000000000000000000000000000000000000005f52602260045260245ffd5b5f6002820490506001821680610e6057607f821691505b602082108103610e7357610e72610e1c565b5b50919050565b5f819050815f5260205f209050919050565b5f6020601f8301049050919050565b5f82821b905092915050565b5f60088302610ed57fffffffffffffffffffffffffffffffffffffffffffffffffffffffffffffffff82610e9a565b610edf8683610e9a565b95508019841693508086168417925050509392505050565b5f819050919050565b5f610f1a610f15610f108461092d565b610ef7565b61092d565b9050919050565b5f819050919050565b610f3383610f00565b610f47610f3f82610f21565b848454610ea6565b825550505050565b5f90565b610f5b610f4f565b610f66818484610f2a565b505050565b5b81811015610f8957610f7e5f82610f53565b600181019050610f6c565b5050565b601f821115610fce57610f9f81610e79565b610fa884610e8b565b81016020851015610fb7578190505b610fcb610fc385610e8b565b830182610f6b565b50505b505050565b5f82821c905092915050565b5f610fee5f1984600802610fd3565b1980831691505092915050565b5f6110068383610fdf565b9150826002028217905092915050565b61101f826109d9565b67ffffffffffffffff81111561103857611037610ad8565b5b6110428254610e49565b61104d828285610f8d565b5f60209050601f83116001811461107e575f841561106c578287015190505b6110768582610ffb565b8655506110dd565b601f19841661108c86610e79565b5f5b828110156110b35784890151825560018201915060208501945060208101905061108e565b868310156110d057848901516110cc601f891682610fdf565b8355505b6001600288020188555050505b505050505050565b5f6080820190506110f85f83018761098b565b818103602083015261110a8186610a2b565b9050818103604083015261111e8185610a2b565b905061112d606083018461098b565b95945050505050565b7f4e487b71000000000000000000000000000000000000000000000000000000005f52601160045260245ffd5b5f61116d8261092d565b91507fffffffffffffffffffffffffffffffffffffffffffffffffffffffffffffffff820361119f5761119e611136565b5b600182019050919050565b7f506f7374206e6f7420666f756e640000000000000000000000000000000000005f82015250565b5f6111de600e836109e3565b91506111e9826111aa565b602082019050919050565b5f6020820190508181035f83015261120b816111d2565b9050919050565b5f6040820190506112255f83018561098b565b611232602083018461098b565b9392505050565b5f6040820190508181035f8301526112518185610a2b565b9050611260602083018461098b565b939250505056fea264697066735822122089bf98e2f1661e5e53f84aa87fd776c75e3e28d3922a9cf37be704cc4b478c7164736f6c63430008150033",
  "immutableReferences": {},
  "source": "// SPDX-License-Identifier: MIT\r\npragma solidity ^0.8.0;\r\n\r\ncontract PostingImage {\r\n\r\n    mapping(address => string) public usernames;\r\n\r\n    struct Comment {\r\n        address author;\r\n        string text;\r\n        uint256 timestamp;\r\n    }\r\n\r\n    struct Post {\r\n        uint256 id;\r\n        address author;\r\n        string imageUrl;\r\n        string description;\r\n        uint256 likes;\r\n        uint256 timestamp;\r\n        Comment[] comments;\r\n    }\r\n\r\n    uint256 public totalPosts = 0;\r\n    mapping(uint256 => Post) public posts;\r\n\r\n    event UsernameUpdated(address indexed user, string username);\r\n\r\n    event PostCreated(\r\n        uint256 id,\r\n        address indexed author,\r\n        string imageUrl,\r\n        string description,\r\n        uint256 timestamp\r\n    );\r\n\r\n    event PostLiked(uint256 id, address indexed liker, uint256 newLikes);\r\n\r\n    event CommentAdded(\r\n        uint256 indexed id,\r\n        address indexed commenter,\r\n        string text,\r\n        uint256 timestamp\r\n    );\r\n\r\n    // =====================================================\r\n    // USERNAME\r\n    // =====================================================\r\n    function setUsername(string memory name) public {\r\n        usernames[msg.sender] = name;\r\n        emit UsernameUpdated(msg.sender, name);\r\n    }\r\n\r\n    // =====================================================\r\n    // CREATE POST\r\n    // =====================================================\r\n    function createPost(string memory img, string memory desc) public {\r\n        Post storage p = posts[totalPosts];\r\n        p.id = totalPosts;\r\n        p.author = msg.sender;\r\n        p.imageUrl = img;\r\n        p.description = desc;\r\n        p.timestamp = block.timestamp;\r\n\r\n        emit PostCreated(totalPosts, msg.sender, img, desc, block.timestamp);\r\n        totalPosts++;\r\n    }\r\n\r\n    // =====================================================\r\n    // LIKE\r\n    // =====================================================\r\n    function likePost(uint256 postId) public {\r\n        require(postId < totalPosts, \"Post not found\");\r\n        posts[postId].likes++;\r\n        emit PostLiked(postId, msg.sender, posts[postId].likes);\r\n    }\r\n\r\n    // =====================================================\r\n    // COMMENT\r\n    // =====================================================\r\n    function addComment(uint256 postId, string memory text) public {\r\n        require(postId < totalPosts, \"Post not found\");\r\n\r\n        posts[postId].comments.push(\r\n            Comment(msg.sender, text, block.timestamp)\r\n        );\r\n\r\n        emit CommentAdded(postId, msg.sender, text, block.timestamp);\r\n    }\r\n\r\n    // =====================================================\r\n    // GET POST\r\n    // =====================================================\r\n    function getPost(uint256 id)\r\n        public\r\n        view\r\n        returns (\r\n            uint256,\r\n            address,\r\n            string memory,\r\n            string memory,\r\n            uint256,\r\n            uint256,\r\n            uint256\r\n        )\r\n    {\r\n        Post storage p = posts[id];\r\n        return (\r\n            p.id,\r\n            p.author,\r\n            p.imageUrl,\r\n            p.description,\r\n            p.likes,\r\n            p.timestamp,\r\n            p.comments.length\r\n        );\r\n    }\r\n}\r\n",
  "sourcePath": "D:\\BLOCKCHAIN\\TUBES\\posting-image\\contracts\\PostingImage.sol",
  "compiler": {
    "name": "solc",
    "version": "0.8.21+commit.d9974bed.Emscripten.clang"
  },
  "schemaVersion": "3.4.16",
  "updatedAt": "2025-11-25T15:55:16.451Z",
  "devdoc": {
    "kind": "dev",
    "methods": {},
    "version": 1
  },
  "userdoc": {
    "kind": "user",
    "methods": {},
    "version": 1
  }
}