{
  "contractName": "PostingImage",
  "abi": [
    {
      "anonymous": false,
      "inputs": [
        {
          "indexed": true,
          "internalType": "uint256",
          "name": "id",
          "type": "uint256"
        },
        {
          "indexed": true,
          "internalType": "address",
          "name": "commenter",
          "type": "address"
        },
        {
          "indexed": false,
          "internalType": "string",
          "name": "text",
          "type": "string"
        },
        {
          "indexed": false,
          "internalType": "uint256",
          "name": "timestamp",
          "type": "uint256"
        }
      ],
      "name": "CommentAdded",
      "type": "event"
    },
    {
      "anonymous": false,
      "inputs": [
        {
          "indexed": false,
          "internalType": "uint256",
          "name": "id",
          "type": "uint256"
        },
        {
          "indexed": true,
          "internalType": "address",
          "name": "author",
          "type": "address"
        },
        {
          "indexed": false,
          "internalType": "string",
          "name": "imageUrl",
          "type": "string"
        },
        {
          "indexed": false,
          "internalType": "string",
          "name": "description",
          "type": "string"
        },
        {
          "indexed": false,
          "internalType": "uint256",
          "name": "timestamp",
          "type": "uint256"
        }
      ],
      "name": "PostCreated",
      "type": "event"
    },
    {
      "anonymous": false,
      "inputs": [
        {
          "indexed": false,
          "internalType": "uint256",
          "name": "id",
          "type": "uint256"
        },
        {
          "indexed": true,
          "internalType": "address",
          "name": "liker",
          "type": "address"
        },
        {
          "indexed": false,
          "internalType": "uint256",
          "name": "newTotalLikes",
          "type": "uint256"
        }
      ],
      "name": "PostLiked",
      "type": "event"
    },
    {
      "inputs": [
        {
          "internalType": "uint256",
          "name": "",
          "type": "uint256"
        }
      ],
      "name": "posts",
      "outputs": [
        {
          "internalType": "uint256",
          "name": "id",
          "type": "uint256"
        },
        {
          "internalType": "address",
          "name": "author",
          "type": "address"
        },
        {
          "internalType": "string",
          "name": "imageUrl",
          "type": "string"
        },
        {
          "internalType": "string",
          "name": "description",
          "type": "string"
        },
        {
          "internalType": "uint256",
          "name": "likes",
          "type": "uint256"
        },
        {
          "internalType": "uint256",
          "name": "timestamp",
          "type": "uint256"
        }
      ],
      "stateMutability": "view",
      "type": "function"
    },
    {
      "inputs": [],
      "name": "totalPosts",
      "outputs": [
        {
          "internalType": "uint256",
          "name": "",
          "type": "uint256"
        }
      ],
      "stateMutability": "view",
      "type": "function"
    },
    {
      "inputs": [
        {
          "internalType": "string",
          "name": "imageUrl",
          "type": "string"
        },
        {
          "internalType": "string",
          "name": "description",
          "type": "string"
        }
      ],
      "name": "createPost",
      "outputs": [],
      "stateMutability": "nonpayable",
      "type": "function"
    },
    {
      "inputs": [
        {
          "internalType": "uint256",
          "name": "postId",
          "type": "uint256"
        }
      ],
      "name": "likePost",
      "outputs": [],
      "stateMutability": "nonpayable",
      "type": "function"
    },
    {
      "inputs": [
        {
          "internalType": "uint256",
          "name": "postId",
          "type": "uint256"
        },
        {
          "internalType": "string",
          "name": "text",
          "type": "string"
        }
      ],
      "name": "addComment",
      "outputs": [],
      "stateMutability": "nonpayable",
      "type": "function"
    },
    {
      "inputs": [
        {
          "internalType": "uint256",
          "name": "postId",
          "type": "uint256"
        }
      ],
      "name": "getCommentCount",
      "outputs": [
        {
          "internalType": "uint256",
          "name": "",
          "type": "uint256"
        }
      ],
      "stateMutability": "view",
      "type": "function"
    },
    {
      "inputs": [
        {
          "internalType": "uint256",
          "name": "postId",
          "type": "uint256"
        },
        {
          "internalType": "uint256",
          "name": "index",
          "type": "uint256"
        }
      ],
      "name": "getComment",
      "outputs": [
        {
          "internalType": "address",
          "name": "",
          "type": "address"
        },
        {
          "internalType": "string",
          "name": "",
          "type": "string"
        },
        {
          "internalType": "uint256",
          "name": "",
          "type": "uint256"
        }
      ],
      "stateMutability": "view",
      "type": "function"
    },
    {
      "inputs": [
        {
          "internalType": "uint256",
          "name": "postId",
          "type": "uint256"
        }
      ],
      "name": "getPost",
      "outputs": [
        {
          "internalType": "uint256",
          "name": "id",
          "type": "uint256"
        },
        {
          "internalType": "address",
          "name": "author",
          "type": "address"
        },
        {
          "internalType": "string",
          "name": "imageUrl",
          "type": "string"
        },
        {
          "internalType": "string",
          "name": "description",
          "type": "string"
        },
        {
          "internalType": "uint256",
          "name": "likes",
          "type": "uint256"
        },
        {
          "internalType": "uint256",
          "name": "timestamp",
          "type": "uint256"
        },
        {
          "internalType": "uint256",
          "name": "commentCount",
          "type": "uint256"
        }
      ],
      "stateMutability": "view",
      "type": "function"
    }
  ],
  "bytecode": "0x6080604052600060015534801561001557600080fd5b5061133d806100256000396000f3fe608060405234801561001057600080fd5b50600436106100885760003560e01c8063488927531161005b5780634889275314610144578063725009d3146101765780638e53fb4114610192578063aa7e5683146101b057610088565b80630b1e7f831461008d5780630d4bfb4f146100c2578063392338f5146100f257806340731c241461010e575b600080fd5b6100a760048036038101906100a2919061099c565b6101cc565b6040516100b996959493929190610aa9565b60405180910390f35b6100dc60048036038101906100d7919061099c565b610338565b6040516100e99190610b18565b60405180910390f35b61010c60048036038101906101079190610c68565b61035a565b005b6101286004803603810190610123919061099c565b610460565b60405161013b9796959493929190610ce0565b60405180910390f35b61015e60048036038101906101599190610d5d565b6105f6565b60405161016d93929190610d9d565b60405180910390f35b610190600480360381019061018b919061099c565b6106fc565b005b61019a6107d5565b6040516101a79190610b18565b60405180910390f35b6101ca60048036038101906101c59190610ddb565b6107db565b005b60006020528060005260406000206000915090508060000154908060010160009054906101000a900473ffffffffffffffffffffffffffffffffffffffff169080600201805461021b90610e66565b80601f016020809104026020016040519081016040528092919081815260200182805461024790610e66565b80156102945780601f1061026957610100808354040283529160200191610294565b820191906000526020600020905b81548152906001019060200180831161027757829003601f168201915b5050505050908060030180546102a990610e66565b80601f01602080910402602001604051908101604052809291908181526020018280546102d590610e66565b80156103225780601f106102f757610100808354040283529160200191610322565b820191906000526020600020905b81548152906001019060200180831161030557829003601f168201915b5050505050908060040154908060050154905086565b6000806000838152602001908152602001600020600601805490509050919050565b6000806000600154815260200190815260200160002090506001548160000181905550338160010160006101000a81548173ffffffffffffffffffffffffffffffffffffffff021916908373ffffffffffffffffffffffffffffffffffffffff160217905550828160020190816103d19190611043565b50818160030190816103e39190611043565b504281600501819055503373ffffffffffffffffffffffffffffffffffffffff167f1947cbf766c888fc9c5f4256cf388fe32d4901ff5bd47d3a4d5318af978cddbe60015485854260405161043b9493929190611115565b60405180910390a26001600081548092919061045690611197565b9190505550505050565b6000806060806000806000806000808a8152602001908152602001600020905080600001548160010160009054906101000a900473ffffffffffffffffffffffffffffffffffffffff1682600201836003018460040154856005015486600601805490508480546104d090610e66565b80601f01602080910402602001604051908101604052809291908181526020018280546104fc90610e66565b80156105495780601f1061051e57610100808354040283529160200191610549565b820191906000526020600020905b81548152906001019060200180831161052c57829003601f168201915b5050505050945083805461055c90610e66565b80601f016020809104026020016040519081016040528092919081815260200182805461058890610e66565b80156105d55780601f106105aa576101008083540402835291602001916105d5565b820191906000526020600020905b8154815290600101906020018083116105b857829003601f168201915b50505050509350975097509750975097509750975050919395979092949650565b600060606000806000808781526020019081526020016000206006018581548110610624576106236111df565b5b906000526020600020906003020190508060000160009054906101000a900473ffffffffffffffffffffffffffffffffffffffff1681600101826002015481805461066e90610e66565b80601f016020809104026020016040519081016040528092919081815260200182805461069a90610e66565b80156106e75780601f106106bc576101008083540402835291602001916106e7565b820191906000526020600020905b8154815290600101906020018083116106ca57829003601f168201915b50505050509150935093509350509250925092565b6001548110610740576040517f08c379a00000000000000000000000000000000000000000000000000000000081526004016107379061125a565b60405180910390fd5b60016000808381526020019081526020016000206004016000828254610766919061127a565b925050819055503373ffffffffffffffffffffffffffffffffffffffff167fdfb8e3561bacb6caea7f0960d425956921b9147a631b6e857325c39911ee7e3b82600080858152602001908152602001600020600401546040516107ca9291906112ae565b60405180910390a250565b60015481565b600154821061081f576040517f08c379a00000000000000000000000000000000000000000000000000000000081526004016108169061125a565b60405180910390fd5b600060405180606001604052803373ffffffffffffffffffffffffffffffffffffffff16815260200183815260200142815250905060008084815260200190815260200160002060060181908060018154018082558091505060019003906000526020600020906003020160009091909190915060008201518160000160006101000a81548173ffffffffffffffffffffffffffffffffffffffff021916908373ffffffffffffffffffffffffffffffffffffffff16021790555060208201518160010190816108ef9190611043565b506040820151816002015550503373ffffffffffffffffffffffffffffffffffffffff16837fceaa40d9d02173d6fae1f576cc1baff7cec35a842086153314079c405401a98884426040516109459291906112d7565b60405180910390a3505050565b6000604051905090565b600080fd5b600080fd5b6000819050919050565b61097981610966565b811461098457600080fd5b50565b60008135905061099681610970565b92915050565b6000602082840312156109b2576109b161095c565b5b60006109c084828501610987565b91505092915050565b6109d281610966565b82525050565b600073ffffffffffffffffffffffffffffffffffffffff82169050919050565b6000610a03826109d8565b9050919050565b610a13816109f8565b82525050565b600081519050919050565b600082825260208201905092915050565b60005b83811015610a53578082015181840152602081019050610a38565b60008484015250505050565b6000601f19601f8301169050919050565b6000610a7b82610a19565b610a858185610a24565b9350610a95818560208601610a35565b610a9e81610a5f565b840191505092915050565b600060c082019050610abe60008301896109c9565b610acb6020830188610a0a565b8181036040830152610add8187610a70565b90508181036060830152610af18186610a70565b9050610b0060808301856109c9565b610b0d60a08301846109c9565b979650505050505050565b6000602082019050610b2d60008301846109c9565b92915050565b600080fd5b600080fd5b7f4e487b7100000000000000000000000000000000000000000000000000000000600052604160045260246000fd5b610b7582610a5f565b810181811067ffffffffffffffff82111715610b9457610b93610b3d565b5b80604052505050565b6000610ba7610952565b9050610bb38282610b6c565b919050565b600067ffffffffffffffff821115610bd357610bd2610b3d565b5b610bdc82610a5f565b9050602081019050919050565b82818337600083830152505050565b6000610c0b610c0684610bb8565b610b9d565b905082815260208101848484011115610c2757610c26610b38565b5b610c32848285610be9565b509392505050565b600082601f830112610c4f57610c4e610b33565b5b8135610c5f848260208601610bf8565b91505092915050565b60008060408385031215610c7f57610c7e61095c565b5b600083013567ffffffffffffffff811115610c9d57610c9c610961565b5b610ca985828601610c3a565b925050602083013567ffffffffffffffff811115610cca57610cc9610961565b5b610cd685828601610c3a565b9150509250929050565b600060e082019050610cf5600083018a6109c9565b610d026020830189610a0a565b8181036040830152610d148188610a70565b90508181036060830152610d288187610a70565b9050610d3760808301866109c9565b610d4460a08301856109c9565b610d5160c08301846109c9565b98975050505050505050565b60008060408385031215610d7457610d7361095c565b5b6000610d8285828601610987565b9250506020610d9385828601610987565b9150509250929050565b6000606082019050610db26000830186610a0a565b8181036020830152610dc48185610a70565b9050610dd360408301846109c9565b949350505050565b60008060408385031215610df257610df161095c565b5b6000610e0085828601610987565b925050602083013567ffffffffffffffff811115610e2157610e20610961565b5b610e2d85828601610c3a565b9150509250929050565b7f4e487b7100000000000000000000000000000000000000000000000000000000600052602260045260246000fd5b60006002820490506001821680610e7e57607f821691505b602082108103610e9157610e90610e37565b5b50919050565b60008190508160005260206000209050919050565b60006020601f8301049050919050565b600082821b905092915050565b600060088302610ef97fffffffffffffffffffffffffffffffffffffffffffffffffffffffffffffffff82610ebc565b610f038683610ebc565b95508019841693508086168417925050509392505050565b6000819050919050565b6000610f40610f3b610f3684610966565b610f1b565b610966565b9050919050565b6000819050919050565b610f5a83610f25565b610f6e610f6682610f47565b848454610ec9565b825550505050565b600090565b610f83610f76565b610f8e818484610f51565b505050565b5b81811015610fb257610fa7600082610f7b565b600181019050610f94565b5050565b601f821115610ff757610fc881610e97565b610fd184610eac565b81016020851015610fe0578190505b610ff4610fec85610eac565b830182610f93565b50505b505050565b600082821c905092915050565b600061101a60001984600802610ffc565b1980831691505092915050565b60006110338383611009565b9150826002028217905092915050565b61104c82610a19565b67ffffffffffffffff81111561106557611064610b3d565b5b61106f8254610e66565b61107a828285610fb6565b600060209050601f8311600181146110ad576000841561109b578287015190505b6110a58582611027565b86555061110d565b601f1984166110bb86610e97565b60005b828110156110e3578489015182556001820191506020850194506020810190506110be565b8683101561110057848901516110fc601f891682611009565b8355505b6001600288020188555050505b505050505050565b600060808201905061112a60008301876109c9565b818103602083015261113c8186610a70565b905081810360408301526111508185610a70565b905061115f60608301846109c9565b95945050505050565b7f4e487b7100000000000000000000000000000000000000000000000000000000600052601160045260246000fd5b60006111a282610966565b91507fffffffffffffffffffffffffffffffffffffffffffffffffffffffffffffffff82036111d4576111d3611168565b5b600182019050919050565b7f4e487b7100000000000000000000000000000000000000000000000000000000600052603260045260246000fd5b7f506f737420746964616b20646974656d756b616e000000000000000000000000600082015250565b6000611244601483610a24565b915061124f8261120e565b602082019050919050565b6000602082019050818103600083015261127381611237565b9050919050565b600061128582610966565b915061129083610966565b92508282019050808211156112a8576112a7611168565b5b92915050565b60006040820190506112c360008301856109c9565b6112d060208301846109c9565b9392505050565b600060408201905081810360008301526112f18185610a70565b905061130060208301846109c9565b939250505056fea26469706673582212207f1162fedd034405ff3db316db72783675d82d4a30e2dedea4917177e69573fc64736f6c63430008110033",
  "immutableReferences": {},
  "source": "// SPDX-License-Identifier: MIT\r\npragma solidity ^0.8.0;\r\n\r\ncontract PostingImage {\r\n\r\n    struct Comment {\r\n        address author;\r\n        string text;\r\n        uint256 timestamp;\r\n    }\r\n\r\n    struct Post {\r\n        uint256 id;\r\n        address author;\r\n        string imageUrl;       // URL IPFS atau lokasi upload backend\r\n        string description;    // Deskripsi post\r\n        uint256 likes;         // Jumlah likes / tips\r\n        uint256 timestamp;\r\n        Comment[] comments;    // List komentar\r\n    }\r\n\r\n    mapping(uint256 => Post) public posts;\r\n    uint256 public totalPosts = 0;\r\n\r\n    event PostCreated(\r\n        uint256 id,\r\n        address indexed author,\r\n        string imageUrl,\r\n        string description,\r\n        uint256 timestamp\r\n    );\r\n\r\n    event PostLiked(uint256 id, address indexed liker, uint256 newTotalLikes);\r\n\r\n    event CommentAdded(\r\n        uint256 indexed id,\r\n        address indexed commenter,\r\n        string text,\r\n        uint256 timestamp\r\n    );\r\n\r\n    // CREATE POST\r\n    function createPost(string memory imageUrl, string memory description) public {\r\n        Post storage newPost = posts[totalPosts];\r\n        newPost.id = totalPosts;\r\n        newPost.author = msg.sender;\r\n        newPost.imageUrl = imageUrl;\r\n        newPost.description = description;\r\n        newPost.timestamp = block.timestamp;\r\n\r\n        emit PostCreated(totalPosts, msg.sender, imageUrl, description, block.timestamp);\r\n\r\n        totalPosts++;\r\n    }\r\n\r\n    // LIKE POST\r\n    function likePost(uint256 postId) public {\r\n        require(postId < totalPosts, \"Post tidak ditemukan\");\r\n\r\n        posts[postId].likes += 1;\r\n\r\n        emit PostLiked(postId, msg.sender, posts[postId].likes);\r\n    }\r\n\r\n    // ADD COMMENT\r\n    function addComment(uint256 postId, string memory text) public {\r\n        require(postId < totalPosts, \"Post tidak ditemukan\");\r\n\r\n        Comment memory c = Comment({\r\n            author: msg.sender,\r\n            text: text,\r\n            timestamp: block.timestamp\r\n        });\r\n\r\n        posts[postId].comments.push(c);\r\n\r\n        emit CommentAdded(postId, msg.sender, text, block.timestamp);\r\n    }\r\n\r\n    // GET TOTAL COMMENTS\r\n    function getCommentCount(uint256 postId) public view returns (uint256) {\r\n        return posts[postId].comments.length;\r\n    }\r\n\r\n    // GET COMMENT BY INDEX\r\n    function getComment(uint256 postId, uint256 index)\r\n        public\r\n        view\r\n        returns (address, string memory, uint256)\r\n    {\r\n        Comment storage c = posts[postId].comments[index];\r\n        return (c.author, c.text, c.timestamp);\r\n    }\r\n\r\n    // GET POST DATA\r\n    function getPost(uint256 postId)\r\n        public\r\n        view\r\n        returns (\r\n            uint256 id,\r\n            address author,\r\n            string memory imageUrl,\r\n            string memory description,\r\n            uint256 likes,\r\n            uint256 timestamp,\r\n            uint256 commentCount\r\n        )\r\n    {\r\n        Post storage p = posts[postId];\r\n        return (\r\n            p.id,\r\n            p.author,\r\n            p.imageUrl,\r\n            p.description,\r\n            p.likes,\r\n            p.timestamp,\r\n            p.comments.length\r\n        );\r\n    }\r\n}\r\n",
  "sourcePath": "D:\\BLOCKCHAIN\\TUBES\\posting-image\\contracts\\PostingImage.sol",
  "compiler": {
    "name": "solc",
    "version": "0.8.17+commit.8df45f5f.Emscripten.clang"
  },
  "schemaVersion": "3.4.16",
  "updatedAt": "2025-11-25T13:48:31.159Z",
  "devdoc": {
    "kind": "dev",
    "methods": {},
    "version": 1
  },
  "userdoc": {
    "kind": "user",
    "methods": {},
    "version": 1
  }
}