{
  "contractName": "PostingImage",
  "abi": [
    {
      "anonymous": false,
      "inputs": [
        {
          "indexed": true,
          "internalType": "uint256",
          "name": "id",
          "type": "uint256"
        },
        {
          "indexed": true,
          "internalType": "address",
          "name": "commenter",
          "type": "address"
        },
        {
          "indexed": false,
          "internalType": "string",
          "name": "text",
          "type": "string"
        },
        {
          "indexed": false,
          "internalType": "uint256",
          "name": "timestamp",
          "type": "uint256"
        }
      ],
      "name": "CommentAdded",
      "type": "event"
    },
    {
      "anonymous": false,
      "inputs": [
        {
          "indexed": false,
          "internalType": "uint256",
          "name": "id",
          "type": "uint256"
        },
        {
          "indexed": true,
          "internalType": "address",
          "name": "author",
          "type": "address"
        },
        {
          "indexed": false,
          "internalType": "string",
          "name": "imageUrl",
          "type": "string"
        },
        {
          "indexed": false,
          "internalType": "string",
          "name": "description",
          "type": "string"
        },
        {
          "indexed": false,
          "internalType": "uint256",
          "name": "timestamp",
          "type": "uint256"
        }
      ],
      "name": "PostCreated",
      "type": "event"
    },
    {
      "anonymous": false,
      "inputs": [
        {
          "indexed": false,
          "internalType": "uint256",
          "name": "id",
          "type": "uint256"
        },
        {
          "indexed": true,
          "internalType": "address",
          "name": "liker",
          "type": "address"
        },
        {
          "indexed": false,
          "internalType": "uint256",
          "name": "newLikes",
          "type": "uint256"
        }
      ],
      "name": "PostLiked",
      "type": "event"
    },
    {
      "anonymous": false,
      "inputs": [
        {
          "indexed": true,
          "internalType": "address",
          "name": "user",
          "type": "address"
        },
        {
          "indexed": false,
          "internalType": "string",
          "name": "username",
          "type": "string"
        }
      ],
      "name": "UsernameUpdated",
      "type": "event"
    },
    {
      "inputs": [
        {
          "internalType": "uint256",
          "name": "",
          "type": "uint256"
        },
        {
          "internalType": "address",
          "name": "",
          "type": "address"
        }
      ],
      "name": "hasLiked",
      "outputs": [
        {
          "internalType": "bool",
          "name": "",
          "type": "bool"
        }
      ],
      "stateMutability": "view",
      "type": "function",
      "constant": true
    },
    {
      "inputs": [
        {
          "internalType": "uint256",
          "name": "",
          "type": "uint256"
        }
      ],
      "name": "posts",
      "outputs": [
        {
          "internalType": "uint256",
          "name": "id",
          "type": "uint256"
        },
        {
          "internalType": "address",
          "name": "author",
          "type": "address"
        },
        {
          "internalType": "string",
          "name": "imageUrl",
          "type": "string"
        },
        {
          "internalType": "string",
          "name": "description",
          "type": "string"
        },
        {
          "internalType": "uint256",
          "name": "likes",
          "type": "uint256"
        },
        {
          "internalType": "uint256",
          "name": "timestamp",
          "type": "uint256"
        }
      ],
      "stateMutability": "view",
      "type": "function",
      "constant": true
    },
    {
      "inputs": [],
      "name": "totalPosts",
      "outputs": [
        {
          "internalType": "uint256",
          "name": "",
          "type": "uint256"
        }
      ],
      "stateMutability": "view",
      "type": "function",
      "constant": true
    },
    {
      "inputs": [
        {
          "internalType": "address",
          "name": "",
          "type": "address"
        }
      ],
      "name": "usernames",
      "outputs": [
        {
          "internalType": "string",
          "name": "",
          "type": "string"
        }
      ],
      "stateMutability": "view",
      "type": "function",
      "constant": true
    },
    {
      "inputs": [
        {
          "internalType": "string",
          "name": "name",
          "type": "string"
        }
      ],
      "name": "setUsername",
      "outputs": [],
      "stateMutability": "nonpayable",
      "type": "function"
    },
    {
      "inputs": [
        {
          "internalType": "string",
          "name": "img",
          "type": "string"
        },
        {
          "internalType": "string",
          "name": "desc",
          "type": "string"
        }
      ],
      "name": "createPost",
      "outputs": [],
      "stateMutability": "nonpayable",
      "type": "function"
    },
    {
      "inputs": [
        {
          "internalType": "uint256",
          "name": "postId",
          "type": "uint256"
        }
      ],
      "name": "likePost",
      "outputs": [],
      "stateMutability": "nonpayable",
      "type": "function"
    },
    {
      "inputs": [
        {
          "internalType": "uint256",
          "name": "postId",
          "type": "uint256"
        },
        {
          "internalType": "string",
          "name": "text",
          "type": "string"
        }
      ],
      "name": "addComment",
      "outputs": [],
      "stateMutability": "nonpayable",
      "type": "function"
    },
    {
      "inputs": [
        {
          "internalType": "uint256",
          "name": "postId",
          "type": "uint256"
        }
      ],
      "name": "getCommentCount",
      "outputs": [
        {
          "internalType": "uint256",
          "name": "",
          "type": "uint256"
        }
      ],
      "stateMutability": "view",
      "type": "function",
      "constant": true
    },
    {
      "inputs": [
        {
          "internalType": "uint256",
          "name": "postId",
          "type": "uint256"
        },
        {
          "internalType": "uint256",
          "name": "index",
          "type": "uint256"
        }
      ],
      "name": "getComment",
      "outputs": [
        {
          "internalType": "address",
          "name": "",
          "type": "address"
        },
        {
          "internalType": "string",
          "name": "",
          "type": "string"
        },
        {
          "internalType": "uint256",
          "name": "",
          "type": "uint256"
        }
      ],
      "stateMutability": "view",
      "type": "function",
      "constant": true
    },
    {
      "inputs": [
        {
          "internalType": "uint256",
          "name": "id",
          "type": "uint256"
        }
      ],
      "name": "getPost",
      "outputs": [
        {
          "internalType": "uint256",
          "name": "",
          "type": "uint256"
        },
        {
          "internalType": "address",
          "name": "",
          "type": "address"
        },
        {
          "internalType": "string",
          "name": "",
          "type": "string"
        },
        {
          "internalType": "string",
          "name": "",
          "type": "string"
        },
        {
          "internalType": "uint256",
          "name": "",
          "type": "uint256"
        },
        {
          "internalType": "uint256",
          "name": "",
          "type": "uint256"
        },
        {
          "internalType": "uint256",
          "name": "",
          "type": "uint256"
        }
      ],
      "stateMutability": "view",
      "type": "function",
      "constant": true
    }
  ],
  "bytecode": "0x6080604052600060015534801561001557600080fd5b506117be806100256000396000f3fe608060405234801561001057600080fd5b50600436106100a95760003560e01c8063725009d311610071578063725009d3146101975780638e53fb41146101b35780638fb7092c146101d1578063aa7e568314610201578063ed59313a1461021d578063ee91877c14610239576100a9565b80630b1e7f83146100ae5780630d4bfb4f146100e3578063392338f51461011357806340731c241461012f5780634889275314610165575b600080fd5b6100c860048036038101906100c39190610cab565b610269565b6040516100da96959493929190610db8565b60405180910390f35b6100fd60048036038101906100f89190610cab565b6103d5565b60405161010a9190610e27565b60405180910390f35b61012d60048036038101906101289190610f77565b6103f8565b005b61014960048036038101906101449190610cab565b6104ff565b60405161015c9796959493929190610fef565b60405180910390f35b61017f600480360381019061017a919061106c565b610696565b60405161018e939291906110ac565b60405180910390f35b6101b160048036038101906101ac9190610cab565b61079d565b005b6101bb61097d565b6040516101c89190610e27565b60405180910390f35b6101eb60048036038101906101e69190611116565b610983565b6040516101f89190611171565b60405180910390f35b61021b6004803603810190610216919061118c565b6109b2565b005b610237600480360381019061023291906111e8565b610b24565b005b610253600480360381019061024e9190611231565b610bc1565b604051610260919061125e565b60405180910390f35b60026020528060005260406000206000915090508060000154908060010160009054906101000a900473ffffffffffffffffffffffffffffffffffffffff16908060020180546102b8906112af565b80601f01602080910402602001604051908101604052809291908181526020018280546102e4906112af565b80156103315780601f1061030657610100808354040283529160200191610331565b820191906000526020600020905b81548152906001019060200180831161031457829003601f168201915b505050505090806003018054610346906112af565b80601f0160208091040260200160405190810160405280929190818152602001828054610372906112af565b80156103bf5780601f10610394576101008083540402835291602001916103bf565b820191906000526020600020905b8154815290600101906020018083116103a257829003601f168201915b5050505050908060040154908060050154905086565b600060026000838152602001908152602001600020600601805490509050919050565b600060026000600154815260200190815260200160002090506001548160000181905550338160010160006101000a81548173ffffffffffffffffffffffffffffffffffffffff021916908373ffffffffffffffffffffffffffffffffffffffff16021790555082816002019081610470919061148c565b5081816003019081610482919061148c565b504281600501819055503373ffffffffffffffffffffffffffffffffffffffff167f1947cbf766c888fc9c5f4256cf388fe32d4901ff5bd47d3a4d5318af978cddbe6001548585426040516104da949392919061155e565b60405180910390a2600160008154809291906104f5906115e0565b9190505550505050565b600080606080600080600080600260008a8152602001908152602001600020905080600001548160010160009054906101000a900473ffffffffffffffffffffffffffffffffffffffff168260020183600301846004015485600501548660060180549050848054610570906112af565b80601f016020809104026020016040519081016040528092919081815260200182805461059c906112af565b80156105e95780601f106105be576101008083540402835291602001916105e9565b820191906000526020600020905b8154815290600101906020018083116105cc57829003601f168201915b505050505094508380546105fc906112af565b80601f0160208091040260200160405190810160405280929190818152602001828054610628906112af565b80156106755780601f1061064a57610100808354040283529160200191610675565b820191906000526020600020905b81548152906001019060200180831161065857829003601f168201915b50505050509350975097509750975097509750975050919395979092949650565b600060606000806002600087815260200190815260200160002060060185815481106106c5576106c4611628565b5b906000526020600020906003020190508060000160009054906101000a900473ffffffffffffffffffffffffffffffffffffffff1681600101826002015481805461070f906112af565b80601f016020809104026020016040519081016040528092919081815260200182805461073b906112af565b80156107885780601f1061075d57610100808354040283529160200191610788565b820191906000526020600020905b81548152906001019060200180831161076b57829003601f168201915b50505050509150935093509350509250925092565b60015481106107e1576040517f08c379a00000000000000000000000000000000000000000000000000000000081526004016107d8906116a3565b60405180910390fd5b6003600082815260200190815260200160002060003373ffffffffffffffffffffffffffffffffffffffff1673ffffffffffffffffffffffffffffffffffffffff16815260200190815260200160002060009054906101000a900460ff161561087f576040517f08c379a00000000000000000000000000000000000000000000000000000000081526004016108769061170f565b60405180910390fd5b6002600082815260200190815260200160002060040160008154809291906108a6906115e0565b919050555060016003600083815260200190815260200160002060003373ffffffffffffffffffffffffffffffffffffffff1673ffffffffffffffffffffffffffffffffffffffff16815260200190815260200160002060006101000a81548160ff0219169083151502179055503373ffffffffffffffffffffffffffffffffffffffff167fdfb8e3561bacb6caea7f0960d425956921b9147a631b6e857325c39911ee7e3b82600260008581526020019081526020016000206004015460405161097292919061172f565b60405180910390a250565b60015481565b60036020528160005260406000206020528060005260406000206000915091509054906101000a900460ff1681565b60015482106109f6576040517f08c379a00000000000000000000000000000000000000000000000000000000081526004016109ed906116a3565b60405180910390fd5b6002600083815260200190815260200160002060060160405180606001604052803373ffffffffffffffffffffffffffffffffffffffff16815260200183815260200142815250908060018154018082558091505060019003906000526020600020906003020160009091909190915060008201518160000160006101000a81548173ffffffffffffffffffffffffffffffffffffffff021916908373ffffffffffffffffffffffffffffffffffffffff1602179055506020820151816001019081610ac2919061148c565b506040820151816002015550503373ffffffffffffffffffffffffffffffffffffffff16827fceaa40d9d02173d6fae1f576cc1baff7cec35a842086153314079c405401a9888342604051610b18929190611758565b60405180910390a35050565b806000803373ffffffffffffffffffffffffffffffffffffffff1673ffffffffffffffffffffffffffffffffffffffff1681526020019081526020016000209081610b6f919061148c565b503373ffffffffffffffffffffffffffffffffffffffff167f1af4cc3acb57f067d1d582e3932be6692a4c9a31d8b3a8567dfc1c340a02d53482604051610bb6919061125e565b60405180910390a250565b60006020528060005260406000206000915090508054610be0906112af565b80601f0160208091040260200160405190810160405280929190818152602001828054610c0c906112af565b8015610c595780601f10610c2e57610100808354040283529160200191610c59565b820191906000526020600020905b815481529060010190602001808311610c3c57829003601f168201915b505050505081565b6000604051905090565b600080fd5b600080fd5b6000819050919050565b610c8881610c75565b8114610c9357600080fd5b50565b600081359050610ca581610c7f565b92915050565b600060208284031215610cc157610cc0610c6b565b5b6000610ccf84828501610c96565b91505092915050565b610ce181610c75565b82525050565b600073ffffffffffffffffffffffffffffffffffffffff82169050919050565b6000610d1282610ce7565b9050919050565b610d2281610d07565b82525050565b600081519050919050565b600082825260208201905092915050565b60005b83811015610d62578082015181840152602081019050610d47565b60008484015250505050565b6000601f19601f8301169050919050565b6000610d8a82610d28565b610d948185610d33565b9350610da4818560208601610d44565b610dad81610d6e565b840191505092915050565b600060c082019050610dcd6000830189610cd8565b610dda6020830188610d19565b8181036040830152610dec8187610d7f565b90508181036060830152610e008186610d7f565b9050610e0f6080830185610cd8565b610e1c60a0830184610cd8565b979650505050505050565b6000602082019050610e3c6000830184610cd8565b92915050565b600080fd5b600080fd5b7f4e487b7100000000000000000000000000000000000000000000000000000000600052604160045260246000fd5b610e8482610d6e565b810181811067ffffffffffffffff82111715610ea357610ea2610e4c565b5b80604052505050565b6000610eb6610c61565b9050610ec28282610e7b565b919050565b600067ffffffffffffffff821115610ee257610ee1610e4c565b5b610eeb82610d6e565b9050602081019050919050565b82818337600083830152505050565b6000610f1a610f1584610ec7565b610eac565b905082815260208101848484011115610f3657610f35610e47565b5b610f41848285610ef8565b509392505050565b600082601f830112610f5e57610f5d610e42565b5b8135610f6e848260208601610f07565b91505092915050565b60008060408385031215610f8e57610f8d610c6b565b5b600083013567ffffffffffffffff811115610fac57610fab610c70565b5b610fb885828601610f49565b925050602083013567ffffffffffffffff811115610fd957610fd8610c70565b5b610fe585828601610f49565b9150509250929050565b600060e082019050611004600083018a610cd8565b6110116020830189610d19565b81810360408301526110238188610d7f565b905081810360608301526110378187610d7f565b90506110466080830186610cd8565b61105360a0830185610cd8565b61106060c0830184610cd8565b98975050505050505050565b6000806040838503121561108357611082610c6b565b5b600061109185828601610c96565b92505060206110a285828601610c96565b9150509250929050565b60006060820190506110c16000830186610d19565b81810360208301526110d38185610d7f565b90506110e26040830184610cd8565b949350505050565b6110f381610d07565b81146110fe57600080fd5b50565b600081359050611110816110ea565b92915050565b6000806040838503121561112d5761112c610c6b565b5b600061113b85828601610c96565b925050602061114c85828601611101565b9150509250929050565b60008115159050919050565b61116b81611156565b82525050565b60006020820190506111866000830184611162565b92915050565b600080604083850312156111a3576111a2610c6b565b5b60006111b185828601610c96565b925050602083013567ffffffffffffffff8111156111d2576111d1610c70565b5b6111de85828601610f49565b9150509250929050565b6000602082840312156111fe576111fd610c6b565b5b600082013567ffffffffffffffff81111561121c5761121b610c70565b5b61122884828501610f49565b91505092915050565b60006020828403121561124757611246610c6b565b5b600061125584828501611101565b91505092915050565b600060208201905081810360008301526112788184610d7f565b905092915050565b7f4e487b7100000000000000000000000000000000000000000000000000000000600052602260045260246000fd5b600060028204905060018216806112c757607f821691505b6020821081036112da576112d9611280565b5b50919050565b60008190508160005260206000209050919050565b60006020601f8301049050919050565b600082821b905092915050565b6000600883026113427fffffffffffffffffffffffffffffffffffffffffffffffffffffffffffffffff82611305565b61134c8683611305565b95508019841693508086168417925050509392505050565b6000819050919050565b600061138961138461137f84610c75565b611364565b610c75565b9050919050565b6000819050919050565b6113a38361136e565b6113b76113af82611390565b848454611312565b825550505050565b600090565b6113cc6113bf565b6113d781848461139a565b505050565b5b818110156113fb576113f06000826113c4565b6001810190506113dd565b5050565b601f82111561144057611411816112e0565b61141a846112f5565b81016020851015611429578190505b61143d611435856112f5565b8301826113dc565b50505b505050565b600082821c905092915050565b600061146360001984600802611445565b1980831691505092915050565b600061147c8383611452565b9150826002028217905092915050565b61149582610d28565b67ffffffffffffffff8111156114ae576114ad610e4c565b5b6114b882546112af565b6114c38282856113ff565b600060209050601f8311600181146114f657600084156114e4578287015190505b6114ee8582611470565b865550611556565b601f198416611504866112e0565b60005b8281101561152c57848901518255600182019150602085019450602081019050611507565b868310156115495784890151611545601f891682611452565b8355505b6001600288020188555050505b505050505050565b60006080820190506115736000830187610cd8565b81810360208301526115858186610d7f565b905081810360408301526115998185610d7f565b90506115a86060830184610cd8565b95945050505050565b7f4e487b7100000000000000000000000000000000000000000000000000000000600052601160045260246000fd5b60006115eb82610c75565b91507fffffffffffffffffffffffffffffffffffffffffffffffffffffffffffffffff820361161d5761161c6115b1565b5b600182019050919050565b7f4e487b7100000000000000000000000000000000000000000000000000000000600052603260045260246000fd5b7f506f7374206e6f7420666f756e64000000000000000000000000000000000000600082015250565b600061168d600e83610d33565b915061169882611657565b602082019050919050565b600060208201905081810360008301526116bc81611680565b9050919050565b7f416e6461207375646168206c696b6520706f7374696e67616e20696e69000000600082015250565b60006116f9601d83610d33565b9150611704826116c3565b602082019050919050565b60006020820190508181036000830152611728816116ec565b9050919050565b60006040820190506117446000830185610cd8565b6117516020830184610cd8565b9392505050565b600060408201905081810360008301526117728185610d7f565b90506117816020830184610cd8565b939250505056fea2646970667358221220c18810133a0c4df85532cf0d245802291bf428a60fc0f3d2cc406669be06e01f64736f6c63430008110033",
  "immutableReferences": {},
  "source": "// SPDX-License-Identifier: MIT\r\npragma solidity ^0.8.0;\r\n\r\ncontract PostingImage {\r\n\r\n    mapping(address => string) public usernames;\r\n\r\n    struct Comment {\r\n        address author;\r\n        string text;\r\n        uint256 timestamp;\r\n    }\r\n\r\n    struct Post {\r\n        uint256 id;\r\n        address author;\r\n        string imageUrl;\r\n        string description;\r\n        uint256 likes;\r\n        uint256 timestamp;\r\n        Comment[] comments;\r\n    }\r\n\r\n    uint256 public totalPosts = 0;\r\n    mapping(uint256 => Post) public posts;\r\n    mapping(uint256 => mapping(address => bool)) public hasLiked;\r\n\r\n    event UsernameUpdated(address indexed user, string username);\r\n\r\n    event PostCreated(\r\n        uint256 id,\r\n        address indexed author,\r\n        string imageUrl,\r\n        string description,\r\n        uint256 timestamp\r\n    );\r\n\r\n    event PostLiked(uint256 id, address indexed liker, uint256 newLikes);\r\n\r\n    event CommentAdded(\r\n        uint256 indexed id,\r\n        address indexed commenter,\r\n        string text,\r\n        uint256 timestamp\r\n    );\r\n\r\n    function setUsername(string memory name) public {\r\n        usernames[msg.sender] = name;\r\n        emit UsernameUpdated(msg.sender, name);\r\n    }\r\n\r\n    function createPost(string memory img, string memory desc) public {\r\n        Post storage p = posts[totalPosts];\r\n        p.id = totalPosts;\r\n        p.author = msg.sender;\r\n        p.imageUrl = img;\r\n        p.description = desc;\r\n        p.timestamp = block.timestamp;\r\n\r\n        emit PostCreated(totalPosts, msg.sender, img, desc, block.timestamp);\r\n        totalPosts++;\r\n    }\r\n\r\n    function likePost(uint256 postId) public {\r\n        require(postId < totalPosts, \"Post not found\");\r\n        require(!hasLiked[postId][msg.sender], \"Anda sudah like postingan ini\");\r\n\r\n        posts[postId].likes++;\r\n\r\n        // Penting  tandai bahwa user sudah like\r\n        hasLiked[postId][msg.sender] = true;\r\n\r\n        emit PostLiked(postId, msg.sender, posts[postId].likes);\r\n    }\r\n\r\n    function addComment(uint256 postId, string memory text) public {\r\n        require(postId < totalPosts, \"Post not found\");\r\n\r\n        posts[postId].comments.push(\r\n            Comment(msg.sender, text, block.timestamp)\r\n        );\r\n\r\n        emit CommentAdded(postId, msg.sender, text, block.timestamp);\r\n    }\r\n\r\n    function getCommentCount(uint256 postId) public view returns (uint256) {\r\n        return posts[postId].comments.length;\r\n    }\r\n\r\n    function getComment(uint256 postId, uint256 index)\r\n        public\r\n        view\r\n        returns (address, string memory, uint256)\r\n    {\r\n        Comment storage c = posts[postId].comments[index];\r\n        return (c.author, c.text, c.timestamp);\r\n    }\r\n\r\n    function getPost(uint256 id)\r\n        public\r\n        view\r\n        returns (\r\n            uint256,\r\n            address,\r\n            string memory,\r\n            string memory,\r\n            uint256,\r\n            uint256,\r\n            uint256\r\n        )\r\n    {\r\n        Post storage p = posts[id];\r\n        return (\r\n            p.id,\r\n            p.author,\r\n            p.imageUrl,\r\n            p.description,\r\n            p.likes,\r\n            p.timestamp,\r\n            p.comments.length\r\n        );\r\n    }\r\n}\r\n",
  "sourcePath": "D:\\BLOCKCHAIN\\TUBES\\posting-image\\contracts\\PostingImage.sol",
  "compiler": {
    "name": "solc",
    "version": "0.8.17+commit.8df45f5f.Emscripten.clang"
  },
  "schemaVersion": "3.4.16",
  "updatedAt": "2025-11-28T15:25:28.351Z",
  "networkType": "ethereum",
  "devdoc": {
    "kind": "dev",
    "methods": {},
    "version": 1
  },
  "userdoc": {
    "kind": "user",
    "methods": {},
    "version": 1
  }
}