{
  "contractName": "PostingImage",
  "abi": [
    {
      "anonymous": false,
      "inputs": [
        {
          "indexed": true,
          "internalType": "uint256",
          "name": "id",
          "type": "uint256"
        },
        {
          "indexed": true,
          "internalType": "address",
          "name": "commenter",
          "type": "address"
        },
        {
          "indexed": false,
          "internalType": "string",
          "name": "text",
          "type": "string"
        },
        {
          "indexed": false,
          "internalType": "uint256",
          "name": "timestamp",
          "type": "uint256"
        }
      ],
      "name": "CommentAdded",
      "type": "event"
    },
    {
      "anonymous": false,
      "inputs": [
        {
          "indexed": false,
          "internalType": "uint256",
          "name": "id",
          "type": "uint256"
        },
        {
          "indexed": true,
          "internalType": "address",
          "name": "author",
          "type": "address"
        },
        {
          "indexed": false,
          "internalType": "string",
          "name": "imageUrl",
          "type": "string"
        },
        {
          "indexed": false,
          "internalType": "string",
          "name": "description",
          "type": "string"
        },
        {
          "indexed": false,
          "internalType": "uint256",
          "name": "timestamp",
          "type": "uint256"
        }
      ],
      "name": "PostCreated",
      "type": "event"
    },
    {
      "anonymous": false,
      "inputs": [
        {
          "indexed": false,
          "internalType": "uint256",
          "name": "id",
          "type": "uint256"
        },
        {
          "indexed": true,
          "internalType": "address",
          "name": "liker",
          "type": "address"
        },
        {
          "indexed": false,
          "internalType": "uint256",
          "name": "newLikes",
          "type": "uint256"
        }
      ],
      "name": "PostLiked",
      "type": "event"
    },
    {
      "anonymous": false,
      "inputs": [
        {
          "indexed": true,
          "internalType": "address",
          "name": "user",
          "type": "address"
        },
        {
          "indexed": false,
          "internalType": "string",
          "name": "username",
          "type": "string"
        }
      ],
      "name": "UsernameUpdated",
      "type": "event"
    },
    {
      "inputs": [
        {
          "internalType": "uint256",
          "name": "",
          "type": "uint256"
        }
      ],
      "name": "posts",
      "outputs": [
        {
          "internalType": "uint256",
          "name": "id",
          "type": "uint256"
        },
        {
          "internalType": "address",
          "name": "author",
          "type": "address"
        },
        {
          "internalType": "string",
          "name": "imageUrl",
          "type": "string"
        },
        {
          "internalType": "string",
          "name": "description",
          "type": "string"
        },
        {
          "internalType": "uint256",
          "name": "likes",
          "type": "uint256"
        },
        {
          "internalType": "uint256",
          "name": "timestamp",
          "type": "uint256"
        }
      ],
      "stateMutability": "view",
      "type": "function",
      "constant": true
    },
    {
      "inputs": [],
      "name": "totalPosts",
      "outputs": [
        {
          "internalType": "uint256",
          "name": "",
          "type": "uint256"
        }
      ],
      "stateMutability": "view",
      "type": "function",
      "constant": true
    },
    {
      "inputs": [
        {
          "internalType": "address",
          "name": "",
          "type": "address"
        }
      ],
      "name": "usernames",
      "outputs": [
        {
          "internalType": "string",
          "name": "",
          "type": "string"
        }
      ],
      "stateMutability": "view",
      "type": "function",
      "constant": true
    },
    {
      "inputs": [
        {
          "internalType": "string",
          "name": "name",
          "type": "string"
        }
      ],
      "name": "setUsername",
      "outputs": [],
      "stateMutability": "nonpayable",
      "type": "function"
    },
    {
      "inputs": [
        {
          "internalType": "string",
          "name": "img",
          "type": "string"
        },
        {
          "internalType": "string",
          "name": "desc",
          "type": "string"
        }
      ],
      "name": "createPost",
      "outputs": [],
      "stateMutability": "nonpayable",
      "type": "function"
    },
    {
      "inputs": [
        {
          "internalType": "uint256",
          "name": "postId",
          "type": "uint256"
        }
      ],
      "name": "likePost",
      "outputs": [],
      "stateMutability": "nonpayable",
      "type": "function"
    },
    {
      "inputs": [
        {
          "internalType": "uint256",
          "name": "postId",
          "type": "uint256"
        },
        {
          "internalType": "string",
          "name": "text",
          "type": "string"
        }
      ],
      "name": "addComment",
      "outputs": [],
      "stateMutability": "nonpayable",
      "type": "function"
    },
    {
      "inputs": [
        {
          "internalType": "uint256",
          "name": "id",
          "type": "uint256"
        }
      ],
      "name": "getPost",
      "outputs": [
        {
          "internalType": "uint256",
          "name": "",
          "type": "uint256"
        },
        {
          "internalType": "address",
          "name": "",
          "type": "address"
        },
        {
          "internalType": "string",
          "name": "",
          "type": "string"
        },
        {
          "internalType": "string",
          "name": "",
          "type": "string"
        },
        {
          "internalType": "uint256",
          "name": "",
          "type": "uint256"
        },
        {
          "internalType": "uint256",
          "name": "",
          "type": "uint256"
        },
        {
          "internalType": "uint256",
          "name": "",
          "type": "uint256"
        }
      ],
      "stateMutability": "view",
      "type": "function",
      "constant": true
    }
  ],
  "bytecode": "0x6080604052600060015534801561001557600080fd5b5061131c806100256000396000f3fe608060405234801561001057600080fd5b50600436106100885760003560e01c80638e53fb411161005b5780638e53fb4114610130578063aa7e56831461014e578063ed59313a1461016a578063ee91877c1461018657610088565b80630b1e7f831461008d578063392338f5146100c257806340731c24146100de578063725009d314610114575b600080fd5b6100a760048036038101906100a29190610998565b6101b6565b6040516100b996959493929190610aa5565b60405180910390f35b6100dc60048036038101906100d79190610c49565b610322565b005b6100f860048036038101906100f39190610998565b610429565b60405161010b9796959493929190610cc1565b60405180910390f35b61012e60048036038101906101299190610998565b6105c0565b005b610138610699565b6040516101459190610d3e565b60405180910390f35b61016860048036038101906101639190610d59565b61069f565b005b610184600480360381019061017f9190610db5565b610811565b005b6101a0600480360381019061019b9190610e2a565b6108ae565b6040516101ad9190610e57565b60405180910390f35b60026020528060005260406000206000915090508060000154908060010160009054906101000a900473ffffffffffffffffffffffffffffffffffffffff169080600201805461020590610ea8565b80601f016020809104026020016040519081016040528092919081815260200182805461023190610ea8565b801561027e5780601f106102535761010080835404028352916020019161027e565b820191906000526020600020905b81548152906001019060200180831161026157829003601f168201915b50505050509080600301805461029390610ea8565b80601f01602080910402602001604051908101604052809291908181526020018280546102bf90610ea8565b801561030c5780601f106102e15761010080835404028352916020019161030c565b820191906000526020600020905b8154815290600101906020018083116102ef57829003601f168201915b5050505050908060040154908060050154905086565b600060026000600154815260200190815260200160002090506001548160000181905550338160010160006101000a81548173ffffffffffffffffffffffffffffffffffffffff021916908373ffffffffffffffffffffffffffffffffffffffff1602179055508281600201908161039a9190611085565b50818160030190816103ac9190611085565b504281600501819055503373ffffffffffffffffffffffffffffffffffffffff167f1947cbf766c888fc9c5f4256cf388fe32d4901ff5bd47d3a4d5318af978cddbe6001548585426040516104049493929190611157565b60405180910390a26001600081548092919061041f906111d9565b9190505550505050565b600080606080600080600080600260008a8152602001908152602001600020905080600001548160010160009054906101000a900473ffffffffffffffffffffffffffffffffffffffff16826002018360030184600401548560050154866006018054905084805461049a90610ea8565b80601f01602080910402602001604051908101604052809291908181526020018280546104c690610ea8565b80156105135780601f106104e857610100808354040283529160200191610513565b820191906000526020600020905b8154815290600101906020018083116104f657829003601f168201915b5050505050945083805461052690610ea8565b80601f016020809104026020016040519081016040528092919081815260200182805461055290610ea8565b801561059f5780601f106105745761010080835404028352916020019161059f565b820191906000526020600020905b81548152906001019060200180831161058257829003601f168201915b50505050509350975097509750975097509750975050919395979092949650565b6001548110610604576040517f08c379a00000000000000000000000000000000000000000000000000000000081526004016105fb9061126d565b60405180910390fd5b60026000828152602001908152602001600020600401600081548092919061062b906111d9565b91905055503373ffffffffffffffffffffffffffffffffffffffff167fdfb8e3561bacb6caea7f0960d425956921b9147a631b6e857325c39911ee7e3b82600260008581526020019081526020016000206004015460405161068e92919061128d565b60405180910390a250565b60015481565b60015482106106e3576040517f08c379a00000000000000000000000000000000000000000000000000000000081526004016106da9061126d565b60405180910390fd5b6002600083815260200190815260200160002060060160405180606001604052803373ffffffffffffffffffffffffffffffffffffffff16815260200183815260200142815250908060018154018082558091505060019003906000526020600020906003020160009091909190915060008201518160000160006101000a81548173ffffffffffffffffffffffffffffffffffffffff021916908373ffffffffffffffffffffffffffffffffffffffff16021790555060208201518160010190816107af9190611085565b506040820151816002015550503373ffffffffffffffffffffffffffffffffffffffff16827fceaa40d9d02173d6fae1f576cc1baff7cec35a842086153314079c405401a98883426040516108059291906112b6565b60405180910390a35050565b806000803373ffffffffffffffffffffffffffffffffffffffff1673ffffffffffffffffffffffffffffffffffffffff168152602001908152602001600020908161085c9190611085565b503373ffffffffffffffffffffffffffffffffffffffff167f1af4cc3acb57f067d1d582e3932be6692a4c9a31d8b3a8567dfc1c340a02d534826040516108a39190610e57565b60405180910390a250565b600060205280600052604060002060009150905080546108cd90610ea8565b80601f01602080910402602001604051908101604052809291908181526020018280546108f990610ea8565b80156109465780601f1061091b57610100808354040283529160200191610946565b820191906000526020600020905b81548152906001019060200180831161092957829003601f168201915b505050505081565b6000604051905090565b600080fd5b600080fd5b6000819050919050565b61097581610962565b811461098057600080fd5b50565b6000813590506109928161096c565b92915050565b6000602082840312156109ae576109ad610958565b5b60006109bc84828501610983565b91505092915050565b6109ce81610962565b82525050565b600073ffffffffffffffffffffffffffffffffffffffff82169050919050565b60006109ff826109d4565b9050919050565b610a0f816109f4565b82525050565b600081519050919050565b600082825260208201905092915050565b60005b83811015610a4f578082015181840152602081019050610a34565b60008484015250505050565b6000601f19601f8301169050919050565b6000610a7782610a15565b610a818185610a20565b9350610a91818560208601610a31565b610a9a81610a5b565b840191505092915050565b600060c082019050610aba60008301896109c5565b610ac76020830188610a06565b8181036040830152610ad98187610a6c565b90508181036060830152610aed8186610a6c565b9050610afc60808301856109c5565b610b0960a08301846109c5565b979650505050505050565b600080fd5b600080fd5b7f4e487b7100000000000000000000000000000000000000000000000000000000600052604160045260246000fd5b610b5682610a5b565b810181811067ffffffffffffffff82111715610b7557610b74610b1e565b5b80604052505050565b6000610b8861094e565b9050610b948282610b4d565b919050565b600067ffffffffffffffff821115610bb457610bb3610b1e565b5b610bbd82610a5b565b9050602081019050919050565b82818337600083830152505050565b6000610bec610be784610b99565b610b7e565b905082815260208101848484011115610c0857610c07610b19565b5b610c13848285610bca565b509392505050565b600082601f830112610c3057610c2f610b14565b5b8135610c40848260208601610bd9565b91505092915050565b60008060408385031215610c6057610c5f610958565b5b600083013567ffffffffffffffff811115610c7e57610c7d61095d565b5b610c8a85828601610c1b565b925050602083013567ffffffffffffffff811115610cab57610caa61095d565b5b610cb785828601610c1b565b9150509250929050565b600060e082019050610cd6600083018a6109c5565b610ce36020830189610a06565b8181036040830152610cf58188610a6c565b90508181036060830152610d098187610a6c565b9050610d1860808301866109c5565b610d2560a08301856109c5565b610d3260c08301846109c5565b98975050505050505050565b6000602082019050610d5360008301846109c5565b92915050565b60008060408385031215610d7057610d6f610958565b5b6000610d7e85828601610983565b925050602083013567ffffffffffffffff811115610d9f57610d9e61095d565b5b610dab85828601610c1b565b9150509250929050565b600060208284031215610dcb57610dca610958565b5b600082013567ffffffffffffffff811115610de957610de861095d565b5b610df584828501610c1b565b91505092915050565b610e07816109f4565b8114610e1257600080fd5b50565b600081359050610e2481610dfe565b92915050565b600060208284031215610e4057610e3f610958565b5b6000610e4e84828501610e15565b91505092915050565b60006020820190508181036000830152610e718184610a6c565b905092915050565b7f4e487b7100000000000000000000000000000000000000000000000000000000600052602260045260246000fd5b60006002820490506001821680610ec057607f821691505b602082108103610ed357610ed2610e79565b5b50919050565b60008190508160005260206000209050919050565b60006020601f8301049050919050565b600082821b905092915050565b600060088302610f3b7fffffffffffffffffffffffffffffffffffffffffffffffffffffffffffffffff82610efe565b610f458683610efe565b95508019841693508086168417925050509392505050565b6000819050919050565b6000610f82610f7d610f7884610962565b610f5d565b610962565b9050919050565b6000819050919050565b610f9c83610f67565b610fb0610fa882610f89565b848454610f0b565b825550505050565b600090565b610fc5610fb8565b610fd0818484610f93565b505050565b5b81811015610ff457610fe9600082610fbd565b600181019050610fd6565b5050565b601f8211156110395761100a81610ed9565b61101384610eee565b81016020851015611022578190505b61103661102e85610eee565b830182610fd5565b50505b505050565b600082821c905092915050565b600061105c6000198460080261103e565b1980831691505092915050565b6000611075838361104b565b9150826002028217905092915050565b61108e82610a15565b67ffffffffffffffff8111156110a7576110a6610b1e565b5b6110b18254610ea8565b6110bc828285610ff8565b600060209050601f8311600181146110ef57600084156110dd578287015190505b6110e78582611069565b86555061114f565b601f1984166110fd86610ed9565b60005b8281101561112557848901518255600182019150602085019450602081019050611100565b86831015611142578489015161113e601f89168261104b565b8355505b6001600288020188555050505b505050505050565b600060808201905061116c60008301876109c5565b818103602083015261117e8186610a6c565b905081810360408301526111928185610a6c565b90506111a160608301846109c5565b95945050505050565b7f4e487b7100000000000000000000000000000000000000000000000000000000600052601160045260246000fd5b60006111e482610962565b91507fffffffffffffffffffffffffffffffffffffffffffffffffffffffffffffffff8203611216576112156111aa565b5b600182019050919050565b7f506f7374206e6f7420666f756e64000000000000000000000000000000000000600082015250565b6000611257600e83610a20565b915061126282611221565b602082019050919050565b600060208201905081810360008301526112868161124a565b9050919050565b60006040820190506112a260008301856109c5565b6112af60208301846109c5565b9392505050565b600060408201905081810360008301526112d08185610a6c565b90506112df60208301846109c5565b939250505056fea264697066735822122064109f14f4787293e162eb832c651be7cc4b4fb3985421c1ac69c85a7e02a22064736f6c63430008110033",
  "immutableReferences": {},
  "source": "// SPDX-License-Identifier: MIT\r\npragma solidity ^0.8.0;\r\n\r\ncontract PostingImage {\r\n\r\n    mapping(address => string) public usernames;\r\n\r\n    struct Comment {\r\n        address author;\r\n        string text;\r\n        uint256 timestamp;\r\n    }\r\n\r\n    struct Post {\r\n        uint256 id;\r\n        address author;\r\n        string imageUrl;\r\n        string description;\r\n        uint256 likes;\r\n        uint256 timestamp;\r\n        Comment[] comments;\r\n    }\r\n\r\n    uint256 public totalPosts = 0;\r\n    mapping(uint256 => Post) public posts;\r\n\r\n    event UsernameUpdated(address indexed user, string username);\r\n\r\n    event PostCreated(\r\n        uint256 id,\r\n        address indexed author,\r\n        string imageUrl,\r\n        string description,\r\n        uint256 timestamp\r\n    );\r\n\r\n    event PostLiked(uint256 id, address indexed liker, uint256 newLikes);\r\n\r\n    event CommentAdded(\r\n        uint256 indexed id,\r\n        address indexed commenter,\r\n        string text,\r\n        uint256 timestamp\r\n    );\r\n\r\n    // =====================================================\r\n    // USERNAME\r\n    // =====================================================\r\n    function setUsername(string memory name) public {\r\n        usernames[msg.sender] = name;\r\n        emit UsernameUpdated(msg.sender, name);\r\n    }\r\n\r\n    // =====================================================\r\n    // CREATE POST\r\n    // =====================================================\r\n    function createPost(string memory img, string memory desc) public {\r\n        Post storage p = posts[totalPosts];\r\n        p.id = totalPosts;\r\n        p.author = msg.sender;\r\n        p.imageUrl = img;\r\n        p.description = desc;\r\n        p.timestamp = block.timestamp;\r\n\r\n        emit PostCreated(totalPosts, msg.sender, img, desc, block.timestamp);\r\n        totalPosts++;\r\n    }\r\n\r\n    // =====================================================\r\n    // LIKE\r\n    // =====================================================\r\n    function likePost(uint256 postId) public {\r\n        require(postId < totalPosts, \"Post not found\");\r\n        posts[postId].likes++;\r\n        emit PostLiked(postId, msg.sender, posts[postId].likes);\r\n    }\r\n\r\n    // =====================================================\r\n    // COMMENT\r\n    // =====================================================\r\n    function addComment(uint256 postId, string memory text) public {\r\n        require(postId < totalPosts, \"Post not found\");\r\n\r\n        posts[postId].comments.push(\r\n            Comment(msg.sender, text, block.timestamp)\r\n        );\r\n\r\n        emit CommentAdded(postId, msg.sender, text, block.timestamp);\r\n    }\r\n\r\n    // =====================================================\r\n    // GET POST\r\n    // =====================================================\r\n    function getPost(uint256 id)\r\n        public\r\n        view\r\n        returns (\r\n            uint256,\r\n            address,\r\n            string memory,\r\n            string memory,\r\n            uint256,\r\n            uint256,\r\n            uint256\r\n        )\r\n    {\r\n        Post storage p = posts[id];\r\n        return (\r\n            p.id,\r\n            p.author,\r\n            p.imageUrl,\r\n            p.description,\r\n            p.likes,\r\n            p.timestamp,\r\n            p.comments.length\r\n        );\r\n    }\r\n}\r\n",
  "sourcePath": "D:\\BLOCKCHAIN\\TUBES\\posting-image\\contracts\\PostingImage.sol",
  "compiler": {
    "name": "solc",
    "version": "0.8.17+commit.8df45f5f.Emscripten.clang"
  },
  "schemaVersion": "3.4.16",
  "updatedAt": "2025-11-26T11:31:19.572Z",
  "networkType": "ethereum",
  "devdoc": {
    "kind": "dev",
    "methods": {},
    "version": 1
  },
  "userdoc": {
    "kind": "user",
    "methods": {},
    "version": 1
  }
}